:020000040800F2
:100000002898002085030008E18C0008957A0008F4
:10001000DF8C0008590B000865C6000800000000CE
:10002000000000000000000000000000C502000801
:100030008D13000800000000210300087FB30008B2
:100040009F0300089F0300089F0300089F03000808
:100050009F0300089F0300089F0300089F030008F8
:100060009F0300089F0300089F0300089F030008E8
:100070009F0300089F0300089F0300089F030008D8
:100080009F0300089F0300089F0300089F030008C8
:100090009F0300089F0300089F0300089F030008B8
:1000A0009F03000839B500089F0300089F0300085C
:1000B0009F03000845B500089F0300089F03000840
:1000C0009F0300089F0300089F0300089F03000888
:1000D0009F0300089F03000801C600089F03000853
:1000E0009F0300089F0300089F0300089F03000868
:1000F0009F0300089F0300089F0300089F03000858
:100100009F0300089F9F00089F0300089F030008AB
:100110009F0300089F0300089F0300089F03000837
:100120009F0300089F0300089F0300089F03000827
:100130009F03000800000000000000009F0300086B
:100140009F0300089F0300089F0300089F03000807
:100150009F0300089F030008690E00089F03000822
:100160009F0300089F0300089F0300089F030008E7
:100170009F0300089F0300085D0E00089F0300080E
:100180009F0300089F0300089F0300089F030008C7
:100190009F0300089F0300089F0300089F030008B7
:1001A0009F0300089F0300089F0300089F030008A7
:1001B0009F0300089F0300089F0300089F03000897
:1001C0009F0300089F0300080000000000000000DB
:1001D00000000000000000009F0300080000000075
:1001E000000000000000000000000000000000000F
:1001F00000000000000000009F0300089F030008AB
:100200009F0300089F030008000000009F030008F0
:100210009F0300089F0300089F0300089F03000836
:100220009F0300089F0300089F03000800000000D0
:100230009F0300089F030008000000009F030008C0
:100240009F0300089F0300089F0300089F03000806
:100250009F0300089F0300089F0300089F030008F6
:100260009F0300089F0300089F0300089F030008E6
:100270009F0300089F0300089F0300080000000080
:100280009F0300089F030008000000009F03000870
:10029000000000009F0300089F0300089F03000860
:1002A0009F0300089F0300089F030008DFF810D099
:1002B00000F0C4FA0048004709D00008AFF30080FE
:1002C000289800202C4B19680868B0E8F04F80F39C
:1002D0000988BFF36F8F4FF0000080F311887047DB
:1002E0000000000008480068006880F308884FF0AC
:1002F000000080F3148862B661B6BFF34F8FBFF37E
:100300006F8F00DF00BF00BF08ED00E0DFF80C00DA
:10031000016841F470010160704700BF88ED00E0A2
:10032000EFF30980BFF36F8F134B1A681EF0100FA5
:1003300008BF20ED108A20E9F04F106009B44FF09B
:10034000500080F31188BFF34F8FBFF36F8F0DF014
:10035000A5FD4FF0000080F3118809BC19680868FA
:10036000B0E8F04F1EF0100F08BFB0EC108A80F319
:100370000988BFF36F8F7047B4000020EFF305804A
:10038000704700000648804706480047FEE7FEE742
:10039000FEE7FEE7FEE7FEE7FEE7FEE7FEE7FEE735
:1003A00079B40008AD0200082DE9F05F0546002091
:1003B00092469B4688460646814640241BE02846D6
:1003C00041464746224600F070F853465A46C01A46
:1003D000914110D311461846224600F057F82D1AC5
:1003E00067EB01084F4622460120002100F04EF83D
:1003F00017EB00094E41201EA4F10104DFDC484642
:1004000031462A464346BDE8F09F40EA01039B0778
:1004100003D009E008C9121F08C0042AFAD203E079
:1004200011F8013B00F8013B521EF9D27047D2B2DD
:1004300001E000F8012B491EFBD270470022F6E7CD
:1004400010B513460A4604461946FFF7F0FF20464A
:1004500010BD421C10F8011B0029FBD1801A704707
:1004600030B50B46014600202022012409E021FA84
:1004700002F59D4205D303FA02F5491B04FA02F581
:100480002844151EA2F10102F1DC30BD202A04DB54
:10049000203A00FA02F1002070479140C2F1200397
:1004A00020FA03F3194390407047202A04DB203AD6
:1004B00021FA02F00021704721FA02F3D040C2F184
:1004C000200291400843194670472DE9FE4F8046AF
:1004D00081EA0300C00F0C46009021F0004123F098
:1004E0000045B8EB0200A94105D24046214690469E
:1004F0001C460B46024623F00040104347D0270D10
:10050000C7F30A00C3F30A510290401A0190402831
:100510006BDAC3F3130040F4801B0098924620B1BD
:100520000023D2EB030A63EB0B0B01985946C0F191
:1005300040025046FFF7AAFF06460D465046594670
:10054000019A00F08DF910EB08006141002487EA60
:10055000115284EAE7731A4340D0009A62B3019AB9
:10056000012A4FEA075215DC001B61EB02014FF034
:10057000004202EA0752CDE90042001C41F5801119
:1005800032462B4600F08DF903B0BDE8F08F4046AF
:100590002146F9E7001B61EB0201001C41F58013C5
:1005A00000185B412018A2F5001747EB030140EA51
:1005B000D570B6196D4111E06D084FEA360645EA6F
:1005C000C0754FEA0752001B61EB0201001C41F5A8
:1005D000801149084FEA30000019514132462B463C
:1005E00003B0BDE8F04F00F04DB900980122400083
:1005F0000023D0EB020263EBE073009821464FEA40
:10060000E074B8EB000061EB0401E9E783F000431C
:100610005BE781F0004158E72DE9FE4F81EA0304D2
:1006200004F0004421F0004100944FF0000B23F04F
:10063000004350EA01045ED052EA03045BD0C3F3E6
:100640000A54C1F30A552C44A4F2F3340194A0FBDC
:100650000254C1F3130141F48011C3F3130343F4B3
:10066000801301FB024400FB034E840A970A44EA0C
:10067000815447EA8357A4FB076802958D0A05FB5E
:1006800007854FEA932C04FB0C542705029D4FEA83
:10069000065847EA1637B5EB08056EEB070C870ED0
:1006A000920E47EA811742EA8312A7FB0201B6EBDA
:1006B0000B0164EB00042B0D43EA0C335E1844EB92
:1006C0001C50DA465146E7FB0201C5F313044FEA1A
:1006D0000B3343EA14534FEA0432019C43EA060306
:1006E000A4F10C040294009CCDE900B400F0D9F808
:1006F00003B0BDE8F08F00200146F9E72DE9F04D89
:1007000081EA030404F0004B21F0004514464FF049
:10071000000A23F0004150EA050220D054EA010209
:100720001DD0C5F30A570246C5F31303C1F31300E6
:10073000C1F30A5640F4801543F48013A7EB060872
:10074000101BD64608F2FD3873EB050002D308F102
:10075000010801E092185B41B8F1000F03DA0020B4
:100760000146BDE8F08D00204FF480110646844616
:100770000EE0171B73EB050705D3121B63EB050394
:1007800006434CEA010C49084FEA300092185B41DD
:1007900050EA0107EDD152EA030012D082EA0400C8
:1007A00083EA0501084305D0101BAB4106D20122A4
:1007B000002306E000224FF0004302E06FF0010248
:1007C00053101AEB06004CEB085110EB0A0041EBFA
:1007D0000B01BDE8F04D00F055B8C1F30A52C1F36A
:1007E000130140F2FF3341F480119A4202DA0020F3
:1007F0000146704740F233439A42A2F2334202DC90
:100800005242FFF752BEFFF741BE000030B5041E52
:1008100071F1000404DB4FF00044404264EB01013D
:10082000141E73F1000405DB1C464FF000435242D6
:1008300063EB0403994208BF904230BD064C074D5C
:1008400006E0E06840F0010394E8070098471034A0
:10085000AC42F6D3FFF72EFD404D0108604D010874
:10086000202A06DBCB17203A41FA02F043EAE07374
:1008700006E041FA02F3D040C2F120029140084361
:100880001946704710B5141E73F1000408DA401CB5
:1008900041F1000192185B411A4301D120F001009F
:1008A00010BD2DE9F04D92469B4611B1B1FA81F28F
:1008B00002E0B0FA80F220329046FFF7E7FD0446EE
:1008C0000F4640EA0A0041EA0B0153465A460843E4
:1008D00013D0114653EA010019D0C8F14002504626
:1008E000FFF7E3FD05460E46504659464246FFF7E0
:1008F000CDFD084305D0012004E020463946BDE87F
:10090000F08D0020054346EAE0762C4337430A98F1
:100910006305E40AA0EB08000022FD0A44EA4754FC
:100920000A3002D500200146E9E7010510196941A6
:10093000DDE9084500196941BDE8F04DA2E770B551
:100940008C1810F8015B15F0070301D110F8013B7A
:100950002A1106D110F8012B03E010F8016B01F801
:10096000016B5B1EF9D12B0705D40023521E0DD459
:1009700001F8013BFAE710F8013BCB1A921C03E0A7
:1009800013F8015B01F8015B521EF9D5A142D8D3DF
:10099000002070BD10B504462C48D0F8080310F4B0
:1009A000403F10D004F0CAFE6168B1F5803F06D028
:1009B000B1F5003F03D0B1F5403F25D101E0090C6E
:1009C00016E0800820E04FF4002004F009F8616888
:1009D0008A03920B18D18A140C2A15D2DFE802F090
:1009E000140606060606060B0D0F1113890C4900A6
:1009F000B0FBF1F008E0000906E0400904E08009DE
:100A000002E0C00900E0000A11494008884204D809
:100A10002068816821F4407108E00E49884207D8B7
:100A20002068816821F4407141F48071816010BDBB
:100A3000094988422068816804D821F4407141F452
:100A40000071F3E741F44071F0E70000002002403C
:100A5000105E5F0020BCBE0040787D0170B504468A
:100A60000068816811F0010F3BD181681E4A114274
:100A700028D18168D5432940491C816003F078F86A
:100A800006461A4880681A4A00F01F012068904202
:100A900001D1184A00E0024682421DD0E1B120E0B7
:100AA000816811F0010F03D181682940491C8160E0
:100AB00003F05EF8801B02280ED920680068C0434E
:100AC000C00709D0606D40F010006065A06D40F077
:100AD0000100A065012070BD20680168C943C907F5
:100AE000DED1002070BD00003F00008000230240E6
:100AF000002102400020024070B54FF0000508B10F
:100B0000AD1E1CE000F020F8012802D06FF00605B1
:100B100015E00C4C204609F0E3FE204608F018F8DA
:100B20006FF0030628B94FF48041204605F064FABF
:100B300008B1354603E00221204605F003FA2846B5
:100B400070BD0000A804002010B16FF001007047D4
:100B50000120704770477047FEE700002DE9F04123
:100B60002D492E482E4D2F4C0A78012A20D0097885
:100B700002291FD046216180008828802A480088E9
:100B80002A4E308030882838A08000F011F94FF0CC
:100B90001057A0B100F03AF910B34FF0FF3524A080
:100BA000294607F035FA257094F90000BDE8F08178
:100BB0000821E0E7282161800088401CDDE7002152
:100BC00020A007F025FA2888318848434000C11743
:100BD00000EB91708110384608F0CAFA002019E045
:100BE00000211DA007F014FA08F042FB08F09AFB60
:100BF000002008F09FFC012008F089FC288831883B
:100C000048434000C11700EB91708110384608F04E
:100C1000FBFB01202070C7E790000020300000207F
:100C20009800002028000020320000209A000020B8
:100C300043616D657261204572726F7221212121BD
:100C40002100000043616D6572613A4F56323634BF
:100C500030203E3E3E00000043616D6572613A4FB8
:100C60005635363430203E3E3E0000001A48F8B576
:100C70000178012920D1002606704FF01051174845
:100C800000910388164802883146304607F028F85C
:100C9000174C14A2A188608807F056F9154D2888D2
:100CA000811E282909D8A18813A2608807F04CF971
:100CB0002888401C0BE02E80F8BD2A382828FBD855
:100CC000A18810A2608807F03FF92888401E80B2F2
:100CD00028802A28EFD0F8BD940000209A00002038
:100CE00098000020CAB6B1F0D6D02E2E2E000000FB
:100CF0002800002000000020535543434553532152
:100D0000000000004641494C4544210010B5806B6D
:100D1000816C496D022906D0012180F83510C16C23
:100D200041F04001C16400F0C9FF10BD10B5816BF6
:100D30000C468A6B886C0168CAB10A68A36B02F41E
:100D40000022DB0706D12AB1C968E26B01EBC201C0
:100D5000002207E00A68120319D40969E26B01EB6B
:100D6000C201012201F082F9A06B401E0EE008686A
:100D7000000302D5606CC86009E00868000306D46F
:100D8000E26B606C00EB82000861206CA063A06BDA
:100D9000216C88420BD12068C16841F00101C1601B
:100DA00020680068800702D5012084F8350010BD56
:100DB00070B508F017FF07F055FE08F0A3F908F02A
:100DC00015FA08F003FAB0F5195F06D0A0F518512E
:100DD000423902D04FF0FF3070BD0A4808F060F988
:100DE0004FF4B4744FF4F0752146284608F01AFA0F
:100DF000054823462A46C188808808F061F900200A
:100E000070BD00008A3701089400002070B508F01A
:100E1000E9FE08F0C3FA08F031FB08F021FBA0F569
:100E2000AC41403902D04FF0FF3070BD08F080FA7D
:100E30004FF4DC754FF4A5742146284608F040FBBA
:100E4000044823462A4601880348008808F084FAAB
:100E5000002070BD9A00002098000020014800F09A
:100E60005BBF0000BC0D0020014801F06DBE00001A
:100E70000C0E0020294A016891423AD0274A1832C4
:100E8000914236D0254A3032914232D0234A4832FC
:100E900091422ED0214A603291422AD01F4A7832A4
:100EA000914226D01D4A9032914222D01B4AA8324C
:100EB00091421ED01A4A91421BD0194A18329142CF
:100EC00017D0174A3032914213D0154A4832914216
:100ED0000FD0134A603291420BD0114A78329142BE
:100EE00007D00F4A9032914203D00D4AA832914266
:100EF00011D1CAB21823103AB2FBF3F26FF3090111
:100F0000032A02F00703074AD25CC26500D9091D13
:100F100081650846704721F0FF01F9E710000240A3
:100F200010040240FF4C010830B5224A0123016839
:100F30009142CAB21BD01F4C1434A14217D01D4C91
:100F40002834A14213D01B4C3C34A1420FD0194C81
:100F50005034A1420BD0174C6434A14207D0154C39
:100F60007834A14203D0134C8C34A1420CD114210B
:100F7000114C083AB2FBF1F10F4A803201F01F0523
:100F800004EB8101AB4010E00C4D1824103A0D44E5
:100F9000B2FBF4F1A82D00D80831094A01F01F0472
:100FA00002EB8101064AA3408032603080E80E00E7
:100FB00030BD00000854025800580258F0FBFDBF35
:100FC0000008024010B50279531E072B2DD8174C8C
:100FD0000168A1421BD0154C1434A14217D0134C08
:100FE0002834A14213D0114C3C34A1420FD00F4CF5
:100FF0005034A1420BD00D4C6434A14207D00B4CAD
:101000007834A14203D0094C8C34A14203D1084961
:10101000074C443102E00749064C443104EB82029C
:10102000C0E91B2101219940416710BD08540258B5
:10103000FC580258FC08024010B583694FF0C07498
:10104000826A0146002053B1B3F5005F15D072B13A
:10105000012A0CD0022A0AD0032A09D104E01AB1CD
:10106000012A06D0022A03D1C96AC90100D501208C
:1010700010BDC96AA142FAD010BD002AF7D0012ADA
:10108000F2D0022AF3D0032AF3D010BD30B5254D9B
:101090000468AC4238D0234D1835AC4234D0214DD1
:1010A0003035AC4230D01F4D4835AC422CD01D4DB0
:1010B0006035AC4228D01B4D7835AC4224D0194D58
:1010C0009035AC4220D0174DA835AC421CD0164DFF
:1010D000AC4219D0144D1835AC4215D0124D3035F4
:1010E000AC4211D0104D4835AC420DD00E4D60359C
:1010F000AC4209D00C4D7835AC4205D00A4D903544
:10110000AC4201D0084DA83563608368402B03686A
:1011100003D099600068C26030BD9A600068C16009
:1011200030BD000010000240100402402DE9F04FD5
:101130008F4E8F4FDFF838921836DFF834A24837D9
:101140000468856D0AF1300ADFF828B24C45DFF8F3
:1011500028C2DFF828E26DD0B4426BD0544569D084
:10116000BC4267D0DFF80C82A8F11808444561D072
:101170005C455FD064455DD074455BD0DFF800828C
:10118000444557D0DFF8F88108F11808444551D09C
:10119000DFF8EC8108F1300844454BD0DFF8E081FE
:1011A00008F14808444545D0DFF8D48108F16008CB
:1011B00044453FD0DFF8C88108F17808444539D06C
:1011C000DFF8BC8108F19008444533D0DFF8B081E6
:1011D00008F1A80844452DD0DFF8A881444529D05E
:1011E000DFF8A08108F11408444523D0DFF894818A
:1011F00008F1280844451DD0DFF8888108F13C0833
:10120000444517D0DFF87C8108F15008444511D0DF
:10121000DFF8708108F1640844450BD0DFF8648181
:1012200008F17808444505D0DFF8588108F18C08AA
:10123000444509D1D0E91948C4F80480C46E1CB1F2
:10124000D0E91C48C4F8048004684C452ED0B44250
:101250002CD054452AD0BC4228D0464E183EB44229
:1012600024D05C4522D0644520D074451ED0444E25
:10127000B4421BD0424E1836B44217D0404E3036DE
:10128000B44213D03E4E4836B4420FD03C4E603686
:10129000B4420BD03A4E7836B44207D0384E90362E
:1012A000B44203D0364EA836B44215D190F85C60F3
:1012B0003F2406F01F06B440AC600468256825F49E
:1012C000802525604DE09A600068C160BDE8F08F20
:1012D00099600068C260F9E72B4EB4423AD02A4EBA
:1012E0001436B44236D0284E2836B44232D0264E78
:1012F0003C36B4422ED0244E5036B4422AD0224E30
:101300006436B44226D0204E7836B44222D01E4EE7
:101310008C36B4421ED01B4EB4421BD0194E14362C
:10132000B44217D0174E2836B44213D0154E3C366F
:10133000B4420FD0134E5036B4420BD0114E643627
:10134000B44207D00F4E7836B44203D00D4E8C36DF
:10135000B442BBD190F85C60012406F01F06B44093
:101360006C60046863608368402B0368B0D1AAE7AF
:101370001000024088000240A0000240B800024075
:101380001004024008540258082C0248704772B6F4
:10139000FEE700002DE9F0470E4690F850109AB095
:1013A000044601294FF0000916D000252D4F0120D9
:1013B00084F85000159516952068B84210D1DFF8D2
:1013C000A880CDF80080404607F0C6FA8246206823
:1013D00007F0C2FA60B10EE002201AB0BDE8F08753
:1013E000606D84F8505040F0200060650120F4E703
:1013F000BAF1000F0AD0616D4FF0010941F02000F1
:10140000C4F85400484684F85050E6E7174840F6C0
:101410001F713268002A826814D0736822F4404237
:101420001A438260BA68D8F8083002F0010203F06B
:1014300001031A43E6D13268B668836832438B43AE
:101440001A430DE022F440428260BA68D8F80830AE
:1014500002F0010203F001031A43D3D182688A43E8
:101460008260CFE7002002400021024000230240BA
:101470002DE9F84F4FF000090446DFF840A30D4670
:10148000CDF800904F4690F85000DFF834B30128B3
:1014900007D0012684F85060206807F059FA18B187
:1014A0004BE10220BDE8F88F21682868CA69030370
:1014B00028D090FAA0F0B0FA80F000BF00F01F0032
:1014C00006FA00F00243CA61D5E900124FF00C0C95
:1014D00020681F23C1F384610CEA921C02F01F02F2
:1014E000604493409140026B9A430A430263206830
:1014F00007F02EFA8046206807F026FA58EA000026
:1015000003D074E0C0F38460D8E7AA682968206833
:1015100007F02EFA2068C168C268C906696903D459
:10152000C2F38202520002E002F01002520891401F
:101530002A69042A2CD000EB82002B68026E03F08B
:10154000F8430B4302F0004119430166697E2268AB
:101550002869012916D0002102EB8000026E22F0DA
:1015600000420A430266297E20682A6901290CD0BC
:101570000021036902F01F02914023F4F0420A4364
:10158000026134E04FF00041E6E74FF40061F0E71C
:10159000016E2A7801F0F841B1EB826F03D1016E40
:1015A00021F00041016620682978426E02F0F8427D
:1015B000B2EB816F03D1416E21F00041416620689A
:1015C0002978826E02F0F842B2EB816F03D1816E0E
:1015D00021F00041816620682978C26E02F0F8424D
:1015E000B2EB816F03D1C16E21F00041C16620686A
:1015F000816811F0010F79D150F8C02F2B7BDFF8F3
:10160000C4C1296803F018032CFA03FCC1F31308C2
:1016100022EA08020CEA010C42EA0C0202606A4863
:10162000E968814278D1286801031CD090FAA0F1C2
:10163000B1FA81F1491C01F01F0109294FEA00317B
:1016400032D8002912D000BF90FAA0F1B1FA81F18E
:1016500001F1010101F01F0106FA01F609D100BFF5
:10166000C0F3846109E0C0F38461E3E7C0F38461FF
:10167000EEE790FAA0F1B1FA81F101F1010101F078
:101680001F0146EA816102D1C0F3846003E090FA51
:10169000A0F0B0FA80F000F1010000F01F0000EBB4
:1016A000400041EA005133E000290ED090FAA0F149
:1016B000B1FA81F101F1010101F01F0106FA01F611
:1016C00006D100BFC0F3846106E0C0F38461F1E796
:1016D00090FAA0F1B1FA81F101F1010101F01F01CD
:1016E00046EA816103D1C0F3846004E02AE090FA05
:1016F000A0F0B0FA80F0354A00F1010000F01F00C0
:1017000000EB400002EB005041EA000141F00071A3
:10171000AA68206807F02CF92B68002B12DA2C48F5
:101720008168DAF8082001F0E071DBF8086002F067
:10173000010506F00106354308D0606D012740F031
:1017400020006065384684F85090ABE6214DAB42EE
:1017500018D10D0216D423685B45F3D1826841F499
:10176000000122F0E0720A4382601C491A480968AD
:10177000B1FBF0F04000801C00E0401E009000280B
:10178000FBD1DFE7164DAB4207D1CD0105D423686D
:101790005B45D7D141F0807109E0124DAB42D1D108
:1017A0004B02CFD423685B45CCD141F480018268E1
:1017B00022F0E0720A438260C4E700000020024089
:1017C00000210240FFFF0F000000FF47000020FE45
:1017D00000230240000084CB400D0300AC00002039
:1017E0000040C0BA0000B8CF406D70470068006C80
:1017F00070470000F8B54FF000060400354600962B
:1018000002D0606D10B107E00120F8BD204600F065
:10181000DDF8A66584F8506020688168C1F34071E6
:1018200019B181685E4A1140816020688168C1F306
:10183000007181B981685B4A114041F0805181603B
:101840005A4959480968B1FBF0F0401C00E0401EBD
:1018500000900028FBD120688168C1F3007141B974
:10186000616D012541F010016165A16D41F001013B
:10187000A16507F06DF8616DC90600D420B1606DF7
:10188000012540F010006EE0606D20F4807040F0A3
:10189000020060652068806810F0010F10D1444894
:1018A0008068444900F00100896801F001010843A3
:1018B00006D141488268616822F47C120A43826042
:1018C000627D217FA368206B520342EA01421843E4
:1018D000012940EA020004D1218C384A02EB41413F
:1018E0000843616A29B1A26A01F47871014342EAAE
:1018F00001002168324BCA681A400243CA6020685E
:1019000007F026F80646206807F01EF830431DD180
:10191000206844F20303267DE26AC16842EA863207
:1019200099431143C16094F8380001281ED0206803
:10193000016921F0010101612068626B016921F0F8
:101940007041114301612046FFF724F8E068012847
:1019500020681DD0016B21F00F010163606D20F044
:10196000020040F0010060652846F8BD2168A38FA1
:10197000144FD4E9100C144E07EB0347A26C0B690B
:1019800040EA0C003A433340104318430861D3E760
:10199000A269016B521E21F00F011143DDE7000027
:1019A000C0FFFF5FC0FFFF7F400D0300AC000020C1
:1019B0000020024000210240002302400000FEFF00
:1019C00003C0F0FF0100FFFF1EF800FC30B5B5B00A
:1019D000044614212EA8FEF731FDB8216846FEF713
:1019E0002DFD1C492068884231D102200590002439
:1019F00004908123CDE902302022089440258104FF
:101A00006846CDE90654CDE900122A9403F002F9A4
:101A100008B1FFF7BCFC1048016841F020010160EB
:101A2000006800F0200033900B480830016841F056
:101A30000101016000682EAA032100F0010033902B
:101A4000A02082E8130005482EA901F071FF35B0EF
:101A500030BD000000200240384502580000025806
:101A60002DE9F04104463A480F46816801F01F0510
:101A7000216908290FD085B1052D0ED0092D0CD074
:101A8000806800F4404060B1606D40F02000606507
:101A90000120BDE8F081082604E02068C068C00786
:101AA000F1E7042602F064F8804615E0781C13D0B4
:101AB00002F05EF8A0EB0800B84200D867B92068D1
:101AC0000068304208D1606D002184F8501040F069
:101AD000040060650320DCE7206800683042E5D040
:101AE000606D40F400706065206806F039FF80B1D9
:101AF000607D70B92068006800070AD5606D20F429
:101B000080706065606DC00403D4606D40F00100BA
:101B10006065104A20681049904201D10B4600E0F0
:101B20000346834210D07DB1052D0DD0092D0BD079
:101B3000904200D00146C968082E07D0490401D45C
:101B40000C2101600020A4E7C168F5E70821F8E74F
:101B50000023024000210240002002402DE9F04114
:101B600004463848806800F01F05206806F0F0FE43
:101B700018B102210846BDE8F08194F85000012810
:101B80000CD0012084F850002046FEF767FF0100CA
:101B90004FF0000304D084F85030EBE70220EAE76E
:101BA000676D40F6016C284A284E27EA0C0720682A
:101BB00047F480776765904201D1374600E00746D9
:101BC000874200D01DB9676D27F480176765676D80
:101BD000FF0404D5A76D27F00607A76500E0A365FD
:101BE0001C27076084F850302068904201D13346AA
:101BF00000E00346834215D0A5B1052D12D0092D72
:101C000010D0636D904243F48013636500D1304679
:101C1000C0688001AED5606D20F4005040F4805063
:101C20006065A7E7C268920105D5626D22F4005293
:101C300042F4805262658268054B1A40121D826030
:101C400098E70000002302400021024000200240EB
:101C5000C0FFFF7F70B590F83440049D012C12D076
:101C60000124022680F8356043EA0543056841EA0D
:101C7000024100226B620368196280F8354080F8E7
:101C80003420104670BD022070BD10B590F834109D
:101C9000012910D0012180F83410022280F835206B
:101CA00050F8342B0023146844F00404146041708D
:101CB0000370184610BD022010BD000010B500F0E2
:101CC00029F8BDE81040014601A00AF0CDBC000093
:101CD0006572726F723A30782578A3A1A3A1A3A18F
:101CE0000D0A000010B501F043FF094CA168401A2D
:101CF000B0F57A7F06D301F03BFFA0600021607849
:101D0000A070617001216078401C6070217010BD6E
:101D100094000020C06C70472DE9F0410446006833
:101D2000234F0426056969070BD54661E06C40F036
:101D30000200E06484F83560A06C0765A06C00F0D8
:101D4000C1FDA8070DD5216802204861E06C40F074
:101D50000100E06484F83560A06C0765A06C00F0B9
:101D6000B1FDE80605D5216810204861204600F045
:101D700073F8280705D5216808204861204600F03F
:101D800073F9E80712D020680168890703D5C16894
:101D900021F01E01C16020680121C26822F0010209
:101DA000C260206841612046FFF79CFFBDE8F081DA
:101DB0000D0D00082DE9F041040003D094F8350022
:101DC00018B105E00120BDE8F081204600F046F89A
:101DD000A16902204FF0000E84F8350009B1C4F863
:101DE00024E020681B4A016811400160D4E90452D4
:101DF000E168D4E9010C29431043A269084354F86F
:101E0000201B40EA0C001043B4E8E8100A681843AD
:101E100028433043384340EA0C001043086054F82C
:101E2000300C343C102808D1A17FA08B2368E27FBE
:101E300061F31F4040EA0260986120680121C26896
:101E400042F01E02C260C4F84CE084F83510002055
:101E5000B9E7000007F0E0FF7047000070B586B0FA
:101E6000044614216846FEF7E9FA3D492068884295
:101E700073D13C48016841F001010160006800F045
:101E8000010005903748001D016841F01001016014
:101E9000016801F010010591016841F00101016044
:101EA000016801F001010591016841F00401016040
:101EB000016801F004010591016841F00801016029
:101EC000016801F008010591016841F0020101601B
:101ED000016801F002010591016841F0080101600B
:101EE00000680025022100F00800059073200D24F1
:101EF0008DE8230003221C48CDE90324694601F044
:101F000017FD5020009019486946049401F010FD17
:101F1000C020009016486946049401F009FD154E52
:101F20000820694604940090304601F001FD8020AD
:101F3000009011486946049401F0FAFC01223046F1
:101F40009403214601F00FFE01206946CDE9020508
:101F5000CDE90040304601F0EBFC06B070BD00005A
:101F6000000002483C450258001002580000025888
:101F700000080258000C0258000402582DE9F843EA
:101F8000044690F83400012833D0354802274FF03A
:101F9000010884F83480002584F8357026684FF4F1
:101FA000803C6345376847F48047376026684FF0C8
:101FB0004009376827F0020737602668376847EA24
:101FC00001073760A16CC863A66C2649F164A16C57
:101FD0000D65A5632564E56365640DD22168A06C79
:101FE000283101F045FB80B3C4F84C9084F835806B
:101FF00027E00220BDE8F883A16C46464864C4F897
:102000003880E363626405E0E06B4008E063A06B46
:102010004000A063E06B6045F6D2A06B801EA06319
:10202000A36BE16BE06B2364009002EB81032168FA
:10203000A06C283100F062F838B1C4F84C9084F8F4
:102040003560012084F83450D4E7FFE72068016848
:1020500041F001010160002084F83450CAE700001B
:102060002D0D00080D0D0008704700000068214B81
:10207000984238D01F4B1833984234D01D4B303320
:10208000984230D01B4B483398422CD0194B6033C8
:10209000984228D0174B7833984224D0154B903370
:1020A000984220D0134BA83398421CD0124B984230
:1020B00019D0114B1833984215D00F4B303398423A
:1020C00011D00D4B483398420DD00B4B60339842E2
:1020D00009D0094B7833984205D0074B903398428A
:1020E00001D0054BA83312B1016100207047C160D7
:1020F000FBE7000010000240100402402DE9FF4FF2
:1021000081B081689646044600200E9A802900908E
:1021100012D094F83400012813D094F8350001212E
:1021200084F8341001280ED0C902012000906165A6
:10213000009805B0BDE8F08F4FF480706065012015
:10214000F7E70220F5E7FE4D02272068002684F815
:102150003570A842FB4D6665FB4EFC4FDFF8F093EF
:10216000DFF8F0A3DFF8F0B33FD0A8423DD0B04293
:102170003BD0B84239D0484537D0504535D0584586
:1021800033D0DFF8D4C30CF1180C60452DD0DFF844
:10219000CCC3604529D0DFF8C4C30CF1180C6045EE
:1021A00023D0DFF8B8C30CF1300C60451DD0DFF848
:1021B000ACC30CF1480C604517D0DFF8A0C30CF19C
:1021C000600C604511D0DFF894C30CF1780C6045C9
:1021D0000BD0DFF888C30CF1900C604505D0DFF818
:1021E0007CC30CF1A80C604510D1D0F800C03F2191
:1021F0004CF4802CC0F800C02068036194F85C3077
:10220000A06D03F01F039940816010E0D0F800C07A
:1022100048F220084CEA080CC0F800C020680361AE
:1022200094F85C30A06D03F01F03994041601346A1
:10223000029972462046FEF729FFC94AC84BDFF8CB
:1022400020E31432DFF8F882283320680EF13C0EC8
:10225000C34940455FD0A8425DD0B0425BD0B84290
:1022600059D0484557D0504555D0584553D0DFF840
:10227000E8C20CF1180C60454DD0DFF8E0C26045B3
:1022800049D0DFF8D8C20CF1180C604543D0DFF814
:10229000CCC20CF1300C60453DD0DFF8C0C20CF16F
:1022A000480C604537D0DFF8B4C20CF1600C6045D3
:1022B00031D0DFF8A8C20CF1780C60452BD0DFF8E4
:1022C0009CC20CF1900C604525D0DFF890C20CF157
:1022D000A80C60451FD088421DD090421BD0984268
:1022E00019D0704517D0DFF878C20CF1500C60455A
:1022F00011D0DFF86CC20CF1640C60450BD0DFF834
:1023000060C20CF1780C604505D0DFF854C20CF1C6
:102310008C0C604509D1D4E9190CC0F804C0E06EFA
:1023200018B1D4E91C0CC0F804C0C446206860454C
:102330003FD0A8423DD0B0423BD0B84239D048450A
:1023400037D0504535D0584533D0DFF80C8208F1EE
:10235000180840452DD0DFF80482404529D0DFF829
:10236000FC8108F11808404523D0DFF8F08108F11E
:10237000300840451DD0DFF8E48108F148084045A9
:1023800017D0DFF8D88108F16008404511D0DFF898
:10239000CC8108F1780840450BD0DFF8C08108F106
:1023A0009008404505D0DFF8B48108F1A808404501
:1023B00018D1D0F8008028F01E0848F01608C0F8A0
:1023C00000802068D0F8148048F08008C0F814809D
:1023D000206C08B9A06CC0B12068D0F8008048F02B
:1023E000080810E0D0F8008028F00E0848F00A082D
:1023F000C0F80080206C08B9A06C30B12068D0F81B
:10240000008048F00408C0F800802068E04640459D
:1024100057D0A84255D0B04253D0B84251D04845C9
:102420004FD050454DD058454BD0DFF82CC10CF162
:10243000180C604545D0DFF824C1604541D0DFF875
:102440001CC10CF1180C60453BD0DFF810C10CF139
:10245000300C604535D0DFF804C10CF1480C604504
:102460002FD0DFF8F8C00CF1600C604529D0DFF800
:10247000ECC00CF1780C604523D0DFF8E0C00CF123
:10248000900C60451DD0DFF8D4C00CF1A80C60455D
:1024900017D0884215D0904213D0984211D0704581
:1024A0000FD02F49503188420BD02D4964318842DA
:1024B00007D02B497831884203D029498C31884292
:1024C0000DD1206E0168C90303D5016841F4807104
:1024D0000160E06E18B1016841F48071016020680C
:1024E000404528D0A84226D0B04224D0B84222D0BD
:1024F000484520D050451ED058451CD016491831AB
:10250000884218D01549884215D01449183188429C
:1025100011D01249303188420DD0104948318842DB
:1025200009D00E496031884205D00C497831884283
:1025300001D00A499031016841F001010160F7E5DD
:1025400010000240280002404000024058000240B3
:102550007000024088000240A000024010040240C7
:10256000085402582DE9F84F044601F001FB009091
:102570003CB194F83500022806D080216165002026
:10258000E4E00120BDE8F88FC74DC74EC6491835B5
:1025900020683036DFF81483DFF814938842DFF8C0
:1025A00014A3DFF814B32ED0A8422CD0B0422AD006
:1025B000404528D0484526D0504524D0584522D003
:1025C000BD4A183290421ED0BC4A90421BD0BB4A32
:1025D0001832904217D0B94A3032904213D0B74ADD
:1025E000483290420FD0B54A603290420BD0B34A85
:1025F0007832904207D0B14A9032904203D0AF4A2D
:10260000A832904209D1026822F01E0202602068BE
:10261000426922F08002426103E0026822F00E0269
:10262000026027688F4238464DD0A8424BD0B04256
:1026300049D0404547D0484545D0504543D05845FE
:1026400041D09D4A183290423DD09C4A90423AD0A7
:102650009A4A1832904236D0984A3032904232D05C
:10266000964A483290422ED0944A603290422AD004
:10267000924A7832904226D0904A9032904222D0AC
:102680008E4AA83290421ED08D4A90421BD08C4A6E
:102690001432904217D08A4A2832904213D0884A86
:1026A0003C3290420FD0864A503290420BD0844A3E
:1026B0006432904207D0824A7832904203D0804AF6
:1026C0008C32974204D1206E026822F4807202603C
:1026D00075492068884228D0A84226D0B04224D02C
:1026E000404522D0484520D050451ED058451CD0EA
:1026F00071491831884218D07049884215D06F4905
:102700001831884211D06D49303188420DD06B4963
:102710004831884209D069496031884205D067490B
:102720007831884201D065499031016821F001017A
:1027300001600EE001F01CFA0099401A052808D942
:10274000202262650321002084F8351084F83400CB
:1027500017E73868C007EDD1534A0121206890423D
:102760002ED0A8422CD0B0422AD0404528D048458F
:1027700026D0504524D0584522D04F4B183398428C
:102780001ED04E4B98421BD04C4B1833984217D05A
:102790004A4B3033984213D0484B483398420FD0BD
:1027A000464B603398420BD0444B7833984207D065
:1027B000424B9033984203D0404BA833984208D103
:1027C00094F85C703F23A06D07F01F07BB40836047
:1027D00007E094F85C30A06D03F01F0301FA03F3E7
:1027E0004360206890424DD0A8424BD0B04249D0BF
:1027F000404547D0484545D0504543D0584541D045
:102800002D4A183290423DD02C4A90423AD02B4A61
:102810001832904236D0294A3032904232D0274A7C
:10282000483290422ED0254A603290422AD0234A24
:102830007832904226D0214A9032904222D01F4ACC
:10284000A83290421ED01E4A90421BD01C4A14321D
:10285000904217D01A4A2832904213D0184A3C327C
:1028600090420FD0164A503290420BD0144A643234
:10287000904207D0124A7832904203D0104A8C32EC
:1028800090420BD1D4E919024260E06E30B1026887
:1028900022F480720260D4E91C024260002084F8B5
:1028A000351084F834006DE61000024058000240F4
:1028B0007000024088000240A00002401004024064
:1028C000085402582DE9F05F28B190F8351002291C
:1028D00004D0802141650120BDE8F09F904C904BD1
:1028E0000168183C18338E4ADFF83C92A1428D4CA7
:1028F000DFF838E28E4FDFF83CB2DFF83CA28F4DB4
:102900008F4E31D091422FD099422DD0A1422BD061
:10291000494529D0714527D0B94225D0DFF810C2EA
:102920000CF1180C61451FD0DFF808C2ACF1600C47
:10293000614519D0DFF8FCC1ACF1480C614513D0FA
:10294000DFF8F0C1ACF1300C61450DD0DFF8E4C127
:10295000ACF1180C614507D0594505D0514503D05D
:10296000A94201D0B1422CD1DFF8B4C14FF0040824
:1029700080F83580ACF1180C61451DD091421BD018
:10298000994219D0A14217D0494515D0714513D0AD
:10299000B94211D06648183081420DD06548603880
:1029A000814209D063484838814205D061483038B7
:1029B000814201D05F481838086820F001000860A3
:1029C000ABE0D1F800C02CF00E08DFF854C1C1F81C
:1029D0000080ACF1180C0168614527D0914225D0E8
:1029E000994223D0A14221D049451FD071451DD025
:1029F000B9421BD0DFF838C10CF1180C614515D075
:102A0000DFF830C1ACF1600C61450FD0DFF824C1B4
:102A1000ACF1480C614509D0DFF818C1ACF1300CBD
:102A2000614503D0DFF80CC1ACF1180CD1F800C03F
:102A30002CF0010CC1F800C0DFF8E4804FF0010C6D
:102A40000168A8F11808414546D0914244D0994206
:102A500042D0A14240D049453ED071453CD0B94218
:102A60003AD0334A1832914236D0324A603A9142D3
:102A700032D0304A483A91422ED02E4A303A9142D2
:102A80002AD02C4A183A914226D0594524D0514593
:102A900022D0A94220D0B1421ED02A4A91421BD056
:102AA000284A1432914217D0264A2832914213D034
:102AB000244A3C3291420FD0224A503291420BD0EC
:102AC000204A6432914207D01E4A7832914203D0A4
:102AD0001C4A8C32914218D1016E0A6822F480722D
:102AE0000A6090F85C20816D02F01F020CFA02F27D
:102AF0004A60D0E919124A60C16E31B10A6822F405
:102B000080720A60D0E91C124A600022016D80F8D0
:102B100035C080F8342001B188470020DCE6000091
:102B20002800024058000240700002408800024025
:102B3000A00002407004024088040240A004024049
:102B4000B8040240085402582DE9FC5F0446F74ED1
:102B50000020DFF8D88300904FF41652F44808F1B3
:102B60001808A56DDFF8C493DFF8C0A3016809F168
:102B7000300920680AF1480AB1FBF2F1B042019134
:102B80002F68D5F800C0DFF8ACB335D04146884295
:102B900032D0484530D050452ED058452CD0E5494C
:102BA0001831884228D0E3493031884224D0E149A5
:102BB0004831884220D0E04988421DD0DE49183192
:102BC000884219D0DC493031884215D0DA49483181
:102BD000884211D0DFF860E30EF1600E70450BD033
:102BE000D54A7832904207D0D34B9033984203D0E5
:102BF000D149A83188427DD194F85C20082102F0A7
:102C00001F0201FA02F23A424AD0B04232D04045A5
:102C100030D048452ED050452CD058452AD0C54AF2
:102C20001832904226D0C34A3032904222D0C14A54
:102C3000483290421ED0C04A90421BD0BE4A183241
:102C4000904217D0BC4A3032904213D0BA4A483230
:102C500090420FD0B84A603290420BD0B64A7832D8
:102C6000904207D0B44A9032904203D0B24AA83280
:102C7000904203D1026802F0040202E0026802F00E
:102C800008026AB1026822F00402026094F85C0053
:102C900000F01F008140A960606D40F00100606598
:102CA00094F85C00012100F01F008140394240D0BF
:102CB0002068B04234D0404532D0484530D05045ED
:102CC0002ED058452CD09B4A1832904228D0994A91
:102CD0003032904224D0974A4832904220D0964ACF
:102CE00090421DD0944A1832904219D0924A303204
:102CF000904200E0AFE113D08F4A483290420FD0AB
:102D00008D4A603290420BD08B4A7832904207D085
:102D1000894A9032904203D0874AA83290427DD1AE
:102D2000406910F0800F04D0A960606D40F002008F
:102D3000606594F85C00042100F01F008140394276
:102D40003ED02068B04232D0404530D048452ED0E9
:102D500050452CD058452AD0764A1832904226D079
:102D6000744A3032904222D0724A483290421ED089
:102D7000714A90421BD0704A1832904217D06E4A66
:102D80003032904213D06C4A483290420FD06A4A97
:102D9000603290420BD0684A7832904207D0664A3F
:102DA0009032904203D0644AA83290424ED10068DB
:102DB00010F0020F04D0A960606D40F0040060655F
:102DC00094F85C00102100F01F008140394258D077
:102DD0002068B04234D0404532D0484530D05045CC
:102DE0002ED058452CD0534A1832904228D0514A00
:102DF0003032904224D04F4A4832904220D04E4A3E
:102E000090421DD04C4A1832904219D04A4A303272
:102E1000904215D0484A4832904200E014E00FD06A
:102E2000454A603290420BD0434A7832904207D0F4
:102E3000414A9032904203D03F4AA832904207D193
:102E4000006800F0080006E0006872E70068B7E775
:102E5000006800F00400A0B1A9602068016849037F
:102E600004D50068000308D5A16C07E00168C90516
:102E700003D4016821F008010160216C09B12046EA
:102E8000884794F85C00202100F01F0081403942FF
:102E900079D02068B04232D0404530D048452ED05D
:102EA00050452CD058452AD0224A1832904226D07C
:102EB000204A3032904222D01E4A483290421ED0E0
:102EC0001D4A90421BD01C4A1832904217D01A4A11
:102ED0003032904213D0184A483290420FD0164AEE
:102EE000603290420BD0144A7832904207D0124A96
:102EF0009032904203D0104AA832904203D1006829
:102F000000F0100002E0006800F00200B0B3A96019
:102F100094F835000428206801680FD049037ED555
:102F2000006800032BD4616C2AE00000100002400E
:102F3000AC000020700002401004024021F0160195
:102F400001602068416921F080014161206C08B96D
:102F5000A06C20B12068016821F00801016094F89C
:102F60005C303F21012003F01F0300229940A9603B
:102F700084F8350084F83420216D65E003E0E16BCE
:102F800009B120468847606D00287DD0606DC0077C
:102F900059D02068042184F83510B0422BD0404528
:102FA00029D0484527D0504525D0584523D0AD4994
:102FB000884220D0AB49183188421CD0A949303111
:102FC000884218D0A849884215D0A74918318842AC
:102FD00011D0A549303188420DD0A34948318842EB
:102FE00009D0A1496031884205D09F497831884293
:102FF00001D09D499031016821F0010101602068F4
:103000000099019A491C0091914202D80168C907B0
:10301000F6D10068C00710D003200FE0FFE7016879
:10302000C905ACD403680121002223F0100303601A
:1030300084F8351084F83420A1E7012084F83500A5
:10304000002084F83400E16C00291DD002B0204635
:10305000BDE8F05F0847854988423CD08349143178
:10306000884238D081492831884234D07F493C3168
:10307000884230D07D49503188422CD07B49643120
:10308000884228D0794900E0A4E07831884222D0F3
:1030900076498C3188421ED0754988421BD07449CC
:1030A0001431884217D072492831884213D07049B0
:1030B0003C3188420FD06E49503188420BD06C4968
:1030C0006431884207D06A497831884203D0684920
:1030D0008C3188427ED194F85C800427016808F026
:1030E0001F0807FA08F717EA0C0F009746D04F079A
:1030F00044D500980F04686003D5C8033CD4A16C84
:10310000A2E7880638D42068B0422DD055496039EE
:10311000884229D0484527D0504525D0584523D04E
:103120005049884220D04F49183188421CD04D491F
:103130003031884218D04C49884215D04A4918315C
:10314000884211D04849303188420DD04649483133
:10315000884209D0704507D0904205D0984203D0EC
:103160004149A831884203D1016821F0080102E0F9
:10317000016821F004010160216C65E7022707FA6C
:1031800008F717EA0C0F00974ED08F074CD5009820
:103190000F04686003D5C80344D4616C54E7880603
:1031A00040D42068B0422FD02E49603988422BD0BD
:1031B000484529D0504527D0584525D0294988422F
:1031C00022D02849183188421ED026493031884201
:1031D0001AD000E043E02449884215D02249183132
:1031E000884211D02049303188420DD01E494831E3
:1031F000884209D0704507D0904205D0984203D04C
:103200001949A831884203D1016821F0140102E074
:10321000016821F00A010160012184F835100020C5
:1032200084F83400E16B0FE7082202FA08F212EA90
:103230000C0F14D0090712D5016821F00E010160AE
:1032400094F85C100120002201F01F0100FA01F146
:103250006960606584F8350084F83420F3E6BDE8E1
:10326000FC9F00008800024010040240082C024825
:10327000085402582DE9F05F044600F079FC002C58
:1032800007467DD0F14E022120684FF00308DFF899
:10329000C0934FF00005DFF8BCA3B042DFF8B8B32D
:1032A00034D0EA4A1832904230D048452ED05045AA
:1032B0002CD058452AD0E84A1832904226D0E64A07
:1032C0003032904222D0E44A483290421ED0E34A43
:1032D00090421BD0E14A1832904217D0DF4A303278
:1032E000904213D0DD4A483290420FD0DB4A603220
:1032F00090420BD0D94A7832904207D0D74A9032C8
:10330000904203D0D54AA83290427DD184F835103E
:10331000B04284F834502ED0CC49183188422AD09B
:10332000484528D0504526D0584524D0CA491831A0
:10333000884220D0C849303188421CD0C649483123
:10334000884218D0C549884215D0C44918318842EE
:1033500011D0C249303188420DD0C049483188422D
:1033600009D0BE496031884205D0BC4978318842D5
:1033700001D0BA499031016821F00101016008E0F3
:1033800043E100BF00F0F4FBC01B052801D9202158
:1033900038E120680068C007F4D104F10800216812
:1033A000D4E9053C8E4685C809681043D4E907284E
:1033B0001F43636A3843AA4F40EA0C001043394068
:1033C00040EA0800042B40EA010003D1D4E90B12C3
:1033D000114308436168A1F12902052A0BD9163A65
:1033E000032A08D9083A012A05D9083A032A02D93A
:1033F0007439032901D840F48010CEF80000206809
:10340000676A4069042F00E01FE020F0070047EAE8
:1034100000070DD1D4E90A01074349B12046FDF761
:103420000BFE28B140206065012184F83510ECE0E6
:10343000206847612046FDF71DFD94F85C203F2180
:1034400002F01F029140816074E0864A90423AD0B7
:10345000844A1432904236D0824A2832904232D086
:10346000804A3C3290422ED07E4A503290422AD03E
:103470007C4A6432904226D07A4A7832904222D0F6
:10348000784A8C3290421ED0774A90421BD0764ABE
:103490001432904217D0744A2832904213D0724AA4
:1034A0003C3290420FD0704A503290420BD06E4A5C
:1034B0006432904207D06C4A7832904203D06A4A14
:1034C0008C3290427ED1684A84F8351084F83450AA
:1034D000664B0168A26801EA030E402A73D0802A75
:1034E00072D00022D4E90378D4E9053142EAD70248
:1034F00042EAD8085C4AD4E9077C48EAD30848EA9B
:10350000D10141EAD701524241EA1C11142341EA98
:103510000E01016020681044B0FBF3F08000E0650C
:103520002046FDF7A7FC94F85C20012102F01F0261
:10353000914041602068B04257D0444918318842D8
:1035400053D0484551D050454FD058454DD04249B1
:103550001831884249D040493031884245D03E49EF
:103560004831884241D03D4988423ED03B491831DC
:1035700088423AD039493031884236D037494831CB
:10358000884232D03549603188422ED03349783173
:1035900088422AD031499031884226D02F49A8311B
:1035A000884222D0304988421FD02F4914318842A6
:1035B0001BD02D492831884217D02B493C318842F5
:1035C00013D002E01DE017E018E02749503188428F
:1035D0000BD025496431884207D02349783188428D
:1035E00003D021498C31884229D12046FDF79CFC2B
:1035F000A06880280CD00CE0102273E74FF48042C2
:1036000070E74021616584F835800120BDE8F09FB6
:103610006560216E20790860D4E919014160606815
:10362000401E072808D82046FDF7CCFCE06E056058
:10363000D4E91C01416002E0E56625676567012069
:10364000656584F835000020E0E7000010000240C6
:103650004000024058000240700002401004024046
:103660003F8010FE082C0248085402580F00FEFF4D
:103670002DE9F84F04008C464FF00000009014D064
:1036800094F83400012812D094F83550012000211C
:1036900084F83400012D0CD0C00260650120009038
:1036A00084F834100098BDE8F88F0120FBE7022071
:1036B000F9E78C4D0226206884F83560A8428A4DCF
:1036C00061658A4E8A4FDFF82C82DFF82C92DFF892
:1036D0002CA2DFF82CB226D0A84224D0B04222D0AF
:1036E000B84220D040451ED048451CD050451AD085
:1036F000584518D08349884215D0824918318842EC
:1037000011D08049303188420DD07E4948318842FD
:1037100009D07C496031884205D07A4978318842A5
:1037200001D078499031016821F0010101606146C2
:103730002046FDF7FBFC6B49206888422CD0A8424C
:103740002AD0B04228D0B84226D0404524D048459F
:1037500022D0504520D058451ED06A4A90421BD0F6
:10376000684A1832904217D0664A3032904213D0DD
:10377000644A483290420FD0624A603290420BD085
:10378000604A7832904207D05E4A9032904203D02D
:103790005C4AA83290420CD1026822F01E0242F02C
:1037A00016020260206C88B12068026842F00802AC
:1037B0000BE0026822F00E0242F00A020260206C66
:1037C00020B12068026842F004020260206888424A
:1037D0004BD0A84249D0B04247D0B84245D040452E
:1037E00043D0484541D050453FD058453DD0454A4B
:1037F00090423AD0434A1832904236D0414A303251
:10380000904232D03F4A483290422ED03D4A6032F8
:1038100090422AD03B4A7832904226D0394A9032A0
:10382000904222D0374AA83290421ED0364A904267
:103830001BD0354A1432904217D0334A2832904276
:1038400013D0314A3C3290420FD02F4A503290422E
:103850000BD02D4A6432904207D02B4A78329042E6
:1038600003D0294A8C3290420DD1206E0268D203D7
:1038700003D5026842F480720260E06E18B10268FB
:1038800042F4807202602068884226D0A84224D088
:10389000B04222D0B84220D040451ED048451CD06E
:1038A00050451AD0584518D01649884215D01549A8
:1038B0001831884211D01349303188420DD0114956
:1038C0004831884209D00F496031884205D00D49FE
:1038D0007831884201D00B499031016841F00101F3
:1038E0000160DFE610000240280002404000024074
:1038F000580002407000024088000240A0000240D0
:10390000B8000240100402400854025870B5044642
:1039100000F02EF90546601C02D0044800780444EB
:1039200000F026F9401BA042FAD370BDA000002091
:103930002DE9F84F03247D4D00234FF001094FF08E
:10394000B04B4FF00F0AE9E009FA03F73A4076D09E
:103950000E7906F00306012E01D0022E18D1D0F800
:1039600008C04FEA430ECE6804FA0EF82CEA080CA1
:1039700006FA0EF646EA0C068660D0F804C00E7908
:103980002CEA070CC6F300169E4046EA0C06466079
:103990000E79F643B6070BD0C6684FEA43088F6826
:1039A00004FA08FC26EA0C0607FA08F73743C76052
:1039B0000E7906F00306022E12D1DE080F694FEAD7
:1039C000437C00EB8606B646366A4FEADC6C0AFAA0
:1039D0000CF807FA0CF726EA08063743CEF82070F1
:1039E0000F7906684FEA430807F0030704FA08FC5A
:1039F00007FA08F726EA0C06374307604E6816F404
:103A0000403F1CD04A4E376847F00207376036689F
:103A10009F0706F00206009623F0030606F1B04663
:103A2000B6463F0FD6F80864DFF808810AFA07FCAB
:103A3000404526EA0C0603D14FF0000C41E06CE053
:103A4000DFF8F4C0604502D14FF0010C39E0DFF837
:103A5000ECC0604502D14FF0020C32E0DFF8E0C06C
:103A6000604502D14FF0030C2BE0DFF8D8C0604571
:103A700002D14FF0040C24E0DFF8CCC0604502D145
:103A80004FF0050C1DE0DFF8C4C0604502D14FF0D7
:103A9000060C16E0DFF8B8C0604502D14FF0070C05
:103AA0000FE0DFF8B0C0604502D14FF0080C08E02D
:103AB000DFF8A4C0604502D14FF0090C01E04FF0DF
:103AC0000A0C0CFA07FC4CEA060CCEF808C44F6846
:103AD000DBF80060FF0226EA020600D516435F46C7
:103AE000CBF80060D1F804C0DBF804605FEA8C2CEE
:103AF00026EA020600D516437E606E684F6826EA05
:103B00000206BF0300D516436E602E684F6826EA92
:103B10000206FF0300D516432E605B1C0A6832FACA
:103B200003F67FF411AFBDE8F88F00008000005865
:103B30005445025800000258000402580008025878
:103B4000000C0258001002580014025800180258C5
:103B5000001C025800200258002402580069084046
:103B600000D0012070470AB1816170470904FBE76A
:103B70000148806870470000A0000020024881686A
:103B80000278114481607047A0000020032010B526
:103B900000F0FAF801F018FE0F4A10491468136893
:103BA000C4F3032203F00F038A5CC95C02F01F0216
:103BB00001F01F01D0400A4A20FA01F111600949C1
:103BC00008600F2000F010F808B1012010BD00F0CF
:103BD0009BF8002010BD000018440258304D010829
:103BE000B0000020AC00002010B5102804468AB0B8
:103BF0002AD200220146192000F0A6F8192000F070
:103C000095F8154804601548016841F0010101600C
:103C1000006808A900F001000990684601F060FD05
:103C200001F0C0FD0E49400000220E4CB0FBF1F146
:103C30000D4840F2E7330460C0E90332491EC0E991
:103C4000011203F009F810B101200AB010BD0648B6
:103C500003F052F8F9E70000A40000205045025894
:103C600040420F000000014050010020F0B5154C0B
:103C70004378211D0A1D23600378F3B143680B606C
:103C8000057BC67A817A437B2D07847B45EA0665EE
:103C9000C77B90F809C0067A90F800E045EAC14079
:103CA00040EA834040EA444040EA074040EA0C20B2
:103CB00040EA460040EA0E0001E000200860106083
:103CC000F0BD000098ED00E0BFF35F8F04480021D5
:103CD0000368034A23F48033036070321160704735
:103CE00024ED00E0074A40F0010006497032106000
:103CF000086840F480300860BFF34F8FBFF36F8FC8
:103D00007047000024ED00E0074882B0016841F0F0
:103D100002010160006800220F2100F00200009003
:103D2000901E02B000F010B854450258002809DB7C
:103D3000410900F01F028900012001F1E0219040BB
:103D4000C1F80001704700000E4BF0B41B680D462F
:103D5000C3F30223C3F10706042E00D90426191D5C
:103D6000072901D2002300E0DB1E012404FA06F13A
:103D70009C40491E2940641E994014402143F0BCD8
:103D800008F096BC0CED00E0064900F0070210B503
:103D90004FF6FF040868044B204040EA0220184315
:103DA000086010BD0CED00E00000FA052DE9F04FB1
:103DB00002688346FE484FF0000A8DB00C468242EE
:103DC000564602D10025012001E001250020E846E9
:103DD0000027814607EB47017F1C08EBC101F8B2C1
:103DE00004F080FF20B108204FF0010ACBF8580002
:103DF000FFB2022FEED3BAF1000F7CD1DFF8B0E3AF
:103E0000DEF80000C00707D0DEF8001046F001061B
:103E100021F00101CEF80010E6480068C00706D086
:103E2000E44846F00206016821F00101016005EB5B
:103E300045030C93E048424608EBC303DFF87CB32C
:103E40000121DC469F6800EB8707D7F8008428F43F
:103E50008078C7F80084DBF80070FF0732D0DCF808
:103E60000070B9F1010F27F00107CCF800705CD1A8
:103E7000069B00EB8303D3F8007447F00207C3F8F6
:103E80000074079B3BB100EB8303D3F8007447F049
:103E90002007C3F80074099B4BB121EA030300EB30
:103EA0008303D3F8047447F48027C3F804740A9B8F
:103EB000DBB321EA030700EB8703D3F8047447F070
:103EC000806730E00C9F52F8377077B300EB8707BC
:103ED000D7F800C42CF0010CC7F800C45F683FB1EC
:103EE00000EB8707D7F800C42CF0100CC7F800C40B
:103EF000D3F80CC000E057E1BCF1000F09D021EA73
:103F00000C0700EB8707D7F804C42CF4803CC7F8F3
:103F100004C41B694BB121EA030700EB8703D3F804
:103F2000047427F08077C3F8047409EB4903D4F8CC
:103F300000C0CDF830C0914652F83370BC4518D05F
:103F400009EBC302D4F804C0D2F80480C44510D0F1
:103F5000D4F808C0D2F80880C4450AD0D4F80CC000
:103F6000D2F80C80C44504D0D4F810C0126994452E
:103F700051D10C9ABA4219D109EBC302D4F804C04A
:103F8000D2F80480C44511D1D4F80CC0D2F80C800A
:103F9000C4450BD1D4F810C01269944506D1DBF8A2
:103FA000003043F00103CBF8003034E000EB87072A
:103FB00009EBC302D7F8003423F00103C7F800343B
:103FC00053683BB100EB8303D3F8007427F010076C
:103FD000C3F80074936800EB8303D3F8007427F4EC
:103FE0008077C3F80074D3684BB121EA030700EB74
:103FF0008703D3F8047427F48037C3F80474126974
:104000004AB121EA020300EB8302D2F8043423F020
:104010008073C2F80434A3685A4600EB8303D3F8D4
:10402000007427F4407747EA452747F48077C3F8C0
:104030000074DBF800C063695F1ECCF3074C674572
:1040400008D95F4FD2F800C007EB03472CF47F0379
:104050003B4313601268D207226800EB8202D2F859
:1040600000343FD023F003035B1CC2F800346268C5
:104070004AB100EB8202D2F8003423F0300343F05F
:104080001003C2F80034E268D3030AD521EA020320
:1040900000EB8302D2F8043423F4E02343F48033AA
:1040A0000AE05AB121EA020300EB8302D2F8043499
:1040B00023F0E06343F08073C2F804342269D30331
:1040C00007D5914300EB8100D0F8041421F4E021DE
:1040D0004AE0EAB3914300EB8100D0F8041421F0E8
:1040E000E0614EE001EB450723F003033B43C2F8D8
:1040F000003462685AB100EB8202D2F8003423F037
:10410000300343EA451343F01003C2F80034E26879
:10411000D3030CD521EA020300EB8302D2F8043466
:1041200023F4E02343EA854343F480330CE06AB18F
:1041300021EA020300EB8302D2F8043423F0E063A7
:1041400043EA856343F08073C2F80434226900E0D7
:104150001BE0D3030BD5914300EB8100D0F804148E
:1041600021F4E02141EA854141F440310BE062B1A4
:10417000914300EB8100D0F8041421F0E06141EAA2
:10418000856141F04071C0F80414F00705D0DEF8F5
:10419000001041F00101CEF80010B00704D5054829
:1041A000016841F0010101600DB05046BDE8F08F9B
:1041B0000050005200A0005200B0005200B4005263
:1041C0000000FFFFF8B516460D460446FFF7D0FC89
:1041D0000746606D022804D0142807D0242809D08F
:1041E0000DE0E068B0F1806F0DD108E0286802288A
:1041F00009D002E02868012805D0032803D0102147
:10420000A1650120F8BD00223B46202120460096F2
:1042100004F022FF0028F5D1A0652946204604F0CD
:10422000CFFD0028EED1A96B61B129680422A1B1AC
:10423000012914D00229E5D1616D14290DD0242162
:104240006165F8BD01223B4602212046009604F03C
:1042500003FF226802215162F8BD6265F8BD616DFD
:104260002429FAD01421EBE770B504004FF00005C3
:1042700010D02068016821F0010101602068816888
:1042800021F002018160204600F08CF8002060657A
:10429000284670BD0125FBE7F8B500250446FFF769
:1042A00067FC064624B10020A065606D10B173E084
:1042B000012571E0204600F077F841F28830E06592
:1042C000218A6FF0FF02E0681502636905EB014582
:1042D00021682843E769D4E90DC502EB032343EACB
:1042E0000C1E8B68DFF8B8C040EA0E002843384344
:1042F00003EA0C03184388602068236AC16821F42C
:10430000E0211943C1602368218EE06B40EA01403F
:1043100018612168206C4861D4E90001036802EB50
:10432000012223F4F85111430160E06D00222021A5
:1043300033460090204604F08FFE05002CD1206803
:10434000626AC168521E21F0FF011143C1602068FA
:10435000A268016821F04001114301602168D4E99D
:104360000A02D1F80831104323F0A0421043C1F8EB
:1043700008012068016841F001010160A06902287C
:1043800004D12068816841F002018160E068B0F1E9
:10439000806F03D0022060652846F8BD0120FAE74F
:1043A00084F8E0F87047000070B586B00446142128
:1043B0006846FCF743F84449206888427ED1434868
:1043C000016841F400110160016801F400110591D8
:1043D000016841F480410160006800F4804005906C
:1043E0003A48B838016841F480410160016821F41D
:1043F0008041016035480C30016841F002010160E4
:10440000016801F002010591016841F002010160BB
:10441000016801F002010591016841F008010160A5
:10442000016801F008010591016841F0080101608F
:10443000016801F008010591016841F01001016077
:10444000016801F010010591016841F00801016067
:10445000006802AB03211E4E00F00800059000200A
:104460000924022283E8130004256946CDE900529D
:104470003046FFF75DFA402000900A213046049153
:104480006946FFF755FA134E680269460494009096
:104490003046FFF74DFAA802694604940090304672
:1044A000FFF746FA0C48694600950494FFF740FA76
:1044B000E802694604940090304600E001E0FFF70E
:1044C00037FA06B070BD0000005000523445025863
:1044D00000040258000C0258001002582DE9F8435D
:1044E00015460E460446FFF743FB8046206800F160
:1044F0005007816CD0F810213EB1636D042B06D0BB
:104500001021A1650120BDE8F8830821F9E7036CBB
:104510005B1CE364E36CA3646664036823F04053AC
:1045200043F080530360E068B0F1806F206804D0EE
:10453000D0F8003113F4E06F01D0816401E0C0F8DD
:1045400010210122062143462046009504F084FDF7
:104550000028D8D13878616C0870606C401C6064A9
:10456000E06C401EE064E06C0028EAD10122434682
:1045700002212046009504F06FFD0028C3D1226877
:10458000022151626165BEE7134970B50A68D243E2
:10459000520705D5096801F00701814213D118E0DF
:1045A0000A6822F0070202430A60FFF7E1FA0A4DA7
:1045B0004FF47A760446083D07E000BFFFF7D8FACB
:1045C000001BB04201D9012070BD2868C04380049F
:1045D000F4D4002070BD00000C4802580248016865
:1045E00041F48071016070470048025810B501F035
:1045F000A5F805490968054AC1F30211515C01F0AB
:104600001F01C84010BD000020440258304D010871
:104610004A4930B5494C0B1D0A680C3409681D68BD
:10462000246802F0030305F00102C1F30511C4F38D
:10463000CC04002914FB02F200EE102AF8EE400A26
:1046400076D0414A9FED3E1ADFED3E1AB7EE000AE2
:1046500023B1012B5AD0022B18D15CE0374C283CF7
:1046600023689B0612D5394B246801EE901A116815
:10467000C4F3C104F8EE612AE34001EE903AC1F3BD
:104680000801F8EE611A81EEA22A07E002EE101A84
:104690001168F8EE422A81EEA22A45E001EE901A56
:1046A0001168F8EE611A40EE811A71EE800A62EE2E
:1046B000200AC1F3462101EE101AB8EE411A31EE7C
:1046C000001AC0EE811ABCEEE11A80ED001A1168E2
:1046D000C1F3064101EE101AB8EE411A31EE001A8C
:1046E000C0EE811ABCEEE11A80ED011A1168C1F327
:1046F000066101EE101AB8EE411A31EE000A80EEA2
:10470000801ABCEEC10A80ED020A30BD01EE901A9B
:10471000DFED0F2A03E001EE901ADFED0E2A11689B
:10472000F8EE611A82EEA12AC1F30801B6E7FFE7AD
:10473000002101604160816030BD000028440258C2
:10474000000000390024744C304402580090D0031B
:104750000024744A20BCBE4B494930B5484C0B1D5F
:104760000A68143409681D68246802F00303C5F35D
:104770000012C1F30531C4F3CC04002914FB02F28A
:1047800000EE102AF8EE400A75D03F4A9FED3D1A20
:10479000B7EE000A6BB1DFED3D1A012B01D0022B01
:1047A00064D002EE101A1168F8EE422A81EEA22AB5
:1047B00021E0334C283C23689B0612D5344B2468F7
:1047C00001EE901A1168C4F3C104F8EE612AE340C7
:1047D00001EE903AC1F30801F8EE611A81EEA22AC7
:1047E0000BE001EE901ADFED2B2A00BFF8EE611A04
:1047F000116882EEA12AC1F3080101EE901A116836
:10480000F8EE611A40EE811A71EE800A62EE200A1B
:10481000C1F3462101EE101AB8EE411A31EE001A2A
:10482000C0EE811ABCEEE11A80ED001A1168C1F3E6
:10483000064101EE101AB8EE411A31EE001AC0EE30
:10484000811ABCEEE11A80ED011A1168C1F306610C
:1048500001EE101AB8EE411A31EE000A80EE801A0D
:10486000BCEEC10A80ED020A30BD04E001EE901AF0
:10487000DFED092ABAE70021016041608160F3E7BA
:104880002844025800000039384402580024744A71
:104890000090D0030024744C20BCBE4B494930B575
:1048A000484C0B1D0A681C3409681D68246802F016
:1048B0000303C5F30022C1F30551C4F3CC0400295E
:1048C00014FB02F200EE102AF8EE400A75D03F4ABF
:1048D0009FED3D1AB7EE000A6BB1DFED3D1A012BDB
:1048E00001D0022B64D002EE101A1168F8EE422AB1
:1048F00081EEA22A21E0334C283C23689B0612D586
:10490000344B246801EE901A1168C4F3C104F8EE28
:10491000612AE34001EE903AC1F30801F8EE611A12
:1049200081EEA22A0BE001EE901ADFED2B2A00BFE8
:10493000F8EE611A116882EEA12AC1F3080101EEB6
:10494000901A1168F8EE611A40EE811A71EE800A31
:1049500062EE200AC1F3462101EE101AB8EE411AA8
:1049600031EE001AC0EE811ABCEEE11A80ED001A99
:104970001168C1F3064101EE101AB8EE411A31EE8A
:10498000001AC0EE811ABCEEE11A80ED011A11681E
:10499000C1F3066101EE101AB8EE411A31EE000AB9
:1049A00080EE801ABCEEC10A80ED020A30BD04E040
:1049B00001EE901ADFED092ABAE70021016041609B
:1049C0008160F3E72844025800000039404402584F
:1049D0000024744A0090D0030024744C20BCBE4BC9
:1049E0002DE9F04F864A4FF48079DFF81082484570
:1049F000844B89B0844EA8F1040584494FF0805758
:104A00004FEA22144FF0005C2ED1D8F8000000F0DD
:104A10000700052824D2DFE800F0EC9A6A2591000F
:104A200003A8FFF7F5FD049809B0BDE8F08F6846CC
:104A3000FFF792FE0098F7E706A8FFF72FFF06980A
:104A4000F2E70868C0F3C10022FA00F0ECE70A6858
:104A5000D20568D5B84266D12046E5E71846E3E7B7
:104A60000020E1E73046DFE74FF4007A504510D1EF
:104A7000D8F8000000F4E070802838D004DC00286A
:104A800050D04028ECD162E0C028EBD04845E7D1B7
:104A900054E04FF48069484511D1D8F8000000F483
:104AA0006060484523D003DCE0B35045D8D14EE0E8
:104AB000B0F5C06FD6D0B0F5006FD1D13EE04FF465
:104AC000805948454FF4804B15D1D8F8000000F4C8
:104AD000E040B0F5005F0AD003DC18B34845BFD111
:104AE00035E0B0F5405FBDD05845B9D126E0086843
:104AF0008000B5D5A0E7DFF81891B0F5002F4FF48E
:104B0000803A11D0504534D1286810F4803070D0EC
:104B10005045A5D108680001A2D56846FFF71CFEE4
:104B2000029881E765E01EE0D9F8000010F44030FB
:104B30000DD050450FD0B0F5003F91D128680D68D9
:104B400000F040506D0782D5002880D179E70868D1
:104B5000000185D56BE70868800081D506A8FFF7BE
:104B60009DFE089860E709688903C2D5604589D130
:104B700074E7584529D1D9F8000000F0E04030F042
:104B8000704584D100170728BFF46AAFDFE800F052
:104B900005290D15192D040064E7FFF727FD43E7EC
:104BA0006846FFF7D9FD01983EE708688000A0D568
:104BB00006A8FFF773FE079836E70868400798D500
:104BC0003FE70868C00594D546E7B0F5004F86D1A9
:104BD000D8F8000010F0405007D0B84209D0604526
:104BE00097D108680001DBD43AE708688003FBD559
:104BF00034E708688001F7D512E7000050440258F6
:104C00000090D00340787D010080BB000044025832
:104C1000584402582DE9FC5F044650F8241B002537
:104C200000902E460801FE4FDFF8F8831DD5A06ED8
:104C300050B1B0F5801F0CD0B0F5001F0ED0B0F50C
:104C4000401F1DD001250FE0386840F40030386067
:104C500016E00221201D04F019FD03E00098022156
:104C600004F0A4FD05000BD02E462088C00523D5F6
:104C7000606D05281ED2DFE800F00C11161B1B002A
:104C8000A26ED8F8001021F440111143C8F80010AA
:104C9000EBE7386840F40030386009E00021201D5F
:104CA00004F0F4FC03E00098002104F07FFD0546C9
:104CB0007DB100E001252E46208880052BD5A06D12
:104CC000C02826D00EDCA8B1402818D080280FD1EB
:104CD0001AE0626DD8F8001021F007011143C8F8FE
:104CE0000010E9E7B0F5807F13D0B0F5A07F10D0B9
:104CF00001250FE0386840F40030386009E00021F9
:104D0000201D04F0C3FC03E00098002104F04EFDD8
:104D1000054685B12E46208840052ED5E06DB0F5BC
:104D2000C06F28D010DCB8B1B0F5007F19D0B0F555
:104D3000806F0FD11AE0A26DD8F8001021F4E07155
:104D40001143C8F80010E6E7B0F5006F13D0B0F5D6
:104D5000206F10D001250FE0386840F40030386033
:104D600009E00021201D04F091FC03E000980021DF
:104D700004F01CFD05468DB12E462068DFF8A4B274
:104D80008001ABF1040B1ED5A06CD0B110280ED061
:104D9000202811D0302814D0012513E0E26DD8F876
:104DA000001021F460611143C8F80010E5E738688D
:104DB00040F40030386004E00221201D04F066FC5D
:104DC00005466DB12E462088C0042BD5206EB0F567
:104DD000005F20D00DDCA0B1B0F5805F0FD115E0F1
:104DE000A26CDBF8001021F030011143CBF8001069
:104DF000E9E7B0F5405F13D0B0F5804F10D0012542
:104E00000FE0386840F40030386009E00021201DD0
:104E100004F03CFC03E00098002104F0C7FC0546C8
:104E200085B12E462088800429D5606EB0F5403FBC
:104E300023D010DC08B3B0F5803F14D0B0F5003FAC
:104E40000FD115E0226ED8F8001021F4E041114393
:104E5000C8F80010E6E7B0F5802F0ED0B0F5A02F0F
:104E60000BD001250AE00121201D04F00FFC03E016
:104E70000098012104F09AFC05466DB12E46208869
:104E8000DFF8A0A140040AF1080A25D5D4F8AC0047
:104E900030F0704109D01DE0626ED8F8001021F4A6
:104EA000E0211143C8F80010E9E70017072811D2E4
:104EB000DFE800F00E04090E0E0E0E000121201D89
:104EC00004F0E4FB03E00098012104F06FFC0546C8
:104ED0007DB100E001252E46208800041FD5606FBB
:104EE000D8B1B0F1805F0ED0B0F1005F10D00125D5
:104EF00014E0D4F8AC20DAF8001021F0E0411143BE
:104F0000CAF80010E8E7386840F40030386004E080
:104F10000121201D04F0BAFB05466DB12E46206824
:104F2000C0011ED5606CD0B101280ED0022811D06E
:104F3000032814D0012513E0626FD8F8001021F087
:104F400040511143C8F80010E9E7386840F40030D8
:104F5000386004E00221201D04F098FB054665B18D
:104F60002E46206840024FD52F48016841F48071D9
:104F70000160FEF7FDFD81460EE0626CDBF800107B
:104F800021F003011143CBF80010EAE7FEF7F0FD32
:104F9000A0EB0900642835D823480068C005F5D582
:104FA0008DBBDFF88090B4F8B01009F12009D9F872
:104FB000000001F4407100F44070884211D0D9F82B
:104FC0000010D9F8002021F4407142F48032C9F871
:104FD0000020D9F8002022F48032C9F80020C9F856
:104FE0000010D4F8B000B0F5807F2AD1FEF7C0FDE4
:104FF000019022E0FEF7BCFD0199411A41F2883090
:1050000081421AD903252E462078DFF81890C00770
:1050100009F1040945D0D4F8800018283FD005E0F4
:105020002C440258504402580048025826DC80B3F1
:10503000082829D0102825D12CE0D9F800008007B5
:10504000D8D5D4F8B010C1F301200328FE480DD004
:10505000016821F47C510160B4F8B020D9F8001047
:10506000C2F30B021143C9F80010CDE7F74A0368F9
:1050700002EA111223F47C511143ECE720280ED0F0
:1050800028280CD001250BE00121201D04F0FEFA98
:1050900004E004E00098012104F088FB05465DB1BE
:1050A0002E46207880071FD5E06F06281AD2DFE849
:1050B00000F0170D12171717D4F88020D9F8001038
:1050C00021F038011143C9F80010EAE70121201D41
:1050D00004F0DCFA03E00098012104F067FB0546C8
:1050E00075B100E001252E46207840071FD5D4F881
:1050F0009800062819D2DFE800F0160C11161616D3
:10510000E26FD9F8001021F007011143C9F800102F
:10511000EAE70121201D04F0B9FA03E0009801211B
:1051200004F044FB05469DB100E001252E462078A1
:1051300080062BD5D4F89400B0F1405F24D011DC68
:1051400010B3B0F1805F15D0B0F1005F10D116E060
:10515000D4F89820DAF8001021F007011143CAF8BA
:105160000010E4E7B0F1804F0ED0B0F1A04F0BD0AB
:1051700001250AE00021201D04F088FA03E00098D0
:10518000022104F013FB05468DB12E46207840061F
:105190002BD5D4F8A000B0F5406F24D011DC10B3AB
:1051A000B0F5806F15D0B0F5006F10D116E0D4F8CF
:1051B0009420D9F8001021F0E0411143C9F8001003
:1051C000E4E7B0F5805F0ED0B0F5A05F0BD001250D
:1051D0000AE00021201D04F059FA03E000980221A2
:1051E00004F0E4FA05468DB12E46207800062BD552
:1051F000D4F8A400B0F5C04F24D011DC10B3B0F542
:10520000005F15D0B0F5804F10D116E0D4F8A02083
:10521000DAF8001021F4E0511143CAF80010E4E775
:10522000B0F5004F0ED0B0F5204F0BD001250AE0AD
:105230000021201D04F02AFA03E00098022104F066
:10524000B5FA05464DB12E46207800071ED5D4F894
:105250008800B0F5805F0AD00FE0D4F8A420DAF817
:10526000001021F460411143CAF80010ECE70098E7
:10527000022104F09BFA00B10126D4F88820D9F865
:10528000001021F440511143C9F800102078C006E5
:1052900013D5D4F89C00B0F5807F05D10098022189
:1052A00004F084FA00B10126D4F89C20DAF800104A
:1052B00021F440711143CAF800102068000316D58C
:1052C000D4F8A80038B1B0F5803F09D0B0F5003F60
:1052D0000BD001250AE00021201D04F0D7F903E0DE
:1052E0000098022104F062FA054685B12E46206836
:1052F000400322D5D4F88C00B0F5801F11D0B0F552
:10530000001F13D0B0F5401F15D0012514E0D4F8CC
:10531000A820DAF8001021F440311143CAF8001037
:10532000E5E7386840F40030386004E00098012177
:1053300004F03CFA054655B12E462068C0031CD542
:10534000E06C70B1B0F5803F10D0012514E0D4F8C6
:105350008C20D9F8001021F440111143C9F8001035
:10536000EBE7386840F40030386004E00221201D8B
:1053700004F08CF90546D5B12E462068800005D58D
:105380000098022104F012FA00B10126206880037F
:105390001CD5D4F88400B8B1B0F5807F10D0B0F53A
:1053A000007F11D0B0F5407F0ED001250DE0E26CFA
:1053B000DBF8001021F480311143CBF80010DCE75A
:1053C000386840F400303860E5B32E462068C002EB
:1053D00007D5A26FD8F8001021F000411143C8F89A
:1053E00000102068800207D5E26ED8F8001021F086
:1053F00080711143C8F800102088000507D5226F7E
:10540000DAF8001021F000611143CAF8001020689A
:10541000400009D50C48016821F400410160016891
:10542000D4F8B420114301602068002807DA226D07
:10543000DBF8001021F040511143CBF80010206838
:10544000000205E012E0000010440258CFFFFF0008
:1054500008D5D4F89020D9F8001021F44001114368
:10546000C9F8001066B10120BDE8FC9FD4F8842083
:10547000D9F8001021F440711143C9F80010A5E7D4
:105480000020F1E72DE9F05F04000F467ED0DFF841
:105490003882D8F8000000F00F00B8420CD2D8F8DB
:1054A000001021F00F013943C8F80010D8F80000AF
:1054B00000F00F00B84269D12078844D40070AD52A
:1054C0002069296801F07001884204D9296821F017
:1054D00070010143296020787C4E361D00070AD5F3
:1054E0006069316801F07001884204D9316821F0A7
:1054F0007001014331602078C0060AD5A069316887
:1055000001F4E061884204D9316821F4E06101438B
:1055100031602078DFF8B4B180060BF1080B0CD5B0
:10552000E1695846DBF8002002F07002914204D98C
:10553000026822F070020A430260207880070AD5D0
:10554000E068296801F00F01884204D9296821F038
:105550000F01014329602078C0073ED05B49A26853
:105560002868183920F470601043286060680228A9
:1055700018D0032819D00968012819D04907002933
:105580004ADADFF848A1AAF1080A00E044E0DAF8B4
:10559000002022F007020243CAF80020FEF7E8FAD2
:1055A000814612E009688903E9E709688901E6E7AD
:1055B000C905E4E7FEF7DCFAA0EB090141F2883007
:1055C000814202D90320BDE8F09F6168DAF800004B
:1055D00000F03800B0EBC10FECD1207880070AD57D
:1055E000E068296801F00F01884204D2296821F09F
:1055F0000F0101432960D8F80010404601F00F0167
:10560000B9420BD9016821F00F01394301600068EC
:1056100000F00F00B84201D00120D4E72078400705
:105620000AD52069296801F07001884204D22968EE
:1056300021F0700101432960207800070AD56069D4
:10564000316801F07001884204D2316821F07001A4
:10565000014331602078C0060AD5A069316801F4A1
:10566000E061884204D2316821F4E0610143316095
:10567000207880060CD5E1695846DBF8002002F05E
:105680007002914204D2026822F070020A43026062
:1056900000F09AF80E492A682B68C2F3032203F03F
:1056A0000F038A5CC95C02F01F0201F01F01D040A9
:1056B000084A20FA01F111600749086007480068AC
:1056C000BDE8F05FFEF790BA00200052184402587F
:1056D000304D0108B0000020AC000020A4000020E4
:1056E00070B5144C3F220260124A24680832131D20
:1056F000114D04F00704446016681C1D06F4706622
:105700008660166806F00F06C660126802F0700226
:1057100002611A6802F0700242611A6802F4E062E3
:105720008261226802F07002C261286800F00F00F6
:10573000086070BD104402580020005230B500F0DF
:1057400043F80B4A0B490C4B15681468C5F3032248
:1057500004F00F048A5C095D02F01F0201F01F01D2
:10576000D040064A20FA01F119601060084630BDA9
:1057700018440258304D0108B0000020AC00002051
:1057800000B5FFF7DBFF05490968054AC1F30211BF
:10579000515C01F01F01C84000BD00001C440258CC
:1057A000304D010800B5FFF7C9FF05490968054AF2
:1057B000C1F30221515C01F01F01C84000BD00008F
:1057C0001C440258304D0108454970B545480968E8
:1057D000434B103B11F0380208D00111082A03D0C6
:1057E000102A0BD0182A0BD0084670BD19688906FC
:1057F000FBD51968C1F3C101C84070BD3A4870BDFE
:105800003749374D18310C1D24350A680968266858
:105810002D6802F0030406F00102C1F30511C5F37F
:10582000CC0515FB02F200EE102AB8EE400AE9B3EF
:105830002F4ADFED2E0AB7EE001A6CB1DFED2D1AFC
:10584000012C01D0022C43D002EE101A1068F8EEA1
:10585000422A81EEA22A1EE01C68A40611D51B680C
:1058600001EE901A1168C3F3C103F8EE612AD84023
:1058700001EE900AC1F30800F8EE611A81EEA22A47
:105880000BE001EE901ADFED1C2A00BFF8EE611A62
:10589000106882EEA12AC0F3080001EE900AF8EE2B
:1058A000611A40EE201A31EE810A00E015E022EE86
:1058B000000A1068C0F34620401C00EE900AF8EE83
:1058C000600A80EE201ABCEEC10A10EE100A70BD0C
:1058D00001EE901ADFED092AD8E7002070BD000024
:1058E000104402580090D00340787D010000003938
:1058F000304402580024744A0024744C20BCBE4B2F
:105900002DE9F04704007DD0F84F2078F74D183787
:10591000DFF8D883103DC00766D0D8F8000039689A
:1059200000F03800102822D0182803D101F003001D
:1059300002281CD06068B0F5803F1FD010B3B0F5CE
:10594000A02F2BD0B0F5A81F28682FD020F48030CE
:105950002860286820F480202860286820F48010BF
:105960002860606898B3FEF703F906462BE02868C4
:10597000800339D560680028C5D035E0286840F438
:105980008030EDE7286820F480302860286820F413
:1059900080102860286820F48020E1E7286840F41F
:1059A00080202860286820F4801005E040F48020E2
:1059B0002860286840F480102860DFE7FEF7D8F8F8
:1059C000801B64287ED828688003F7D50CE0FFE7A9
:1059D000FEF7CEF8064604E0FEF7CAF8801B6428FE
:1059E000F0D828688003F7D42078800756D5D8F8F7
:1059F0000000DFF8F892396810F03800A9F10C09BE
:105A000010D000E0F0E0182801D188070AD0E06843
:105A100098B3296821F0190101432960FEF7A8F81D
:105A2000064626E02868400702D5E0680028A3D093
:105A3000E168286820F0190008432860FEF798F80C
:105A4000064604E0FEF794F8801B0228BAD82868BE
:105A50004007F7D5217CD9F8002022F0FE4242EA27
:105A60000161C9F8001019E0FEF782F8801B0228D6
:105A7000A8D828684007F7D5ECE7FFE7286820F0AA
:105A800001002860FEF774F8064604E0FEF770F89F
:105A9000801B022896D828684007F7D42078C006D3
:105AA00046D5D8F80000DFF84492396800F0380095
:105AB000A9F10409082812D0182805D101F0030023
:105AC000012800E0ECE00AD0E0690028286820D036
:105AD00040F080002860FEF74BF8064615E0286885
